{
  "contractName": "Voting",
  "abi": [
    {
      "inputs": [],
      "stateMutability": "nonpayable",
      "type": "constructor"
    },
    {
      "anonymous": false,
      "inputs": [
        {
          "indexed": true,
          "internalType": "uint256",
          "name": "candidateId",
          "type": "uint256"
        }
      ],
      "name": "VotedEvent",
      "type": "event"
    },
    {
      "inputs": [
        {
          "internalType": "uint256",
          "name": "",
          "type": "uint256"
        }
      ],
      "name": "candidates",
      "outputs": [
        {
          "internalType": "uint256",
          "name": "id",
          "type": "uint256"
        },
        {
          "internalType": "string",
          "name": "name",
          "type": "string"
        },
        {
          "internalType": "uint256",
          "name": "voteCount",
          "type": "uint256"
        }
      ],
      "stateMutability": "view",
      "type": "function",
      "constant": true
    },
    {
      "inputs": [],
      "name": "candidatesCount",
      "outputs": [
        {
          "internalType": "uint256",
          "name": "",
          "type": "uint256"
        }
      ],
      "stateMutability": "view",
      "type": "function",
      "constant": true
    },
    {
      "inputs": [
        {
          "internalType": "address",
          "name": "",
          "type": "address"
        }
      ],
      "name": "voters",
      "outputs": [
        {
          "internalType": "bool",
          "name": "",
          "type": "bool"
        }
      ],
      "stateMutability": "view",
      "type": "function",
      "constant": true
    },
    {
      "inputs": [
        {
          "internalType": "uint256",
          "name": "_candidateId",
          "type": "uint256"
        }
      ],
      "name": "vote",
      "outputs": [],
      "stateMutability": "nonpayable",
      "type": "function"
    },
    {
      "inputs": [
        {
          "internalType": "uint256",
          "name": "_candidateId",
          "type": "uint256"
        }
      ],
      "name": "getCandidate",
      "outputs": [
        {
          "internalType": "string",
          "name": "",
          "type": "string"
        },
        {
          "internalType": "uint256",
          "name": "",
          "type": "uint256"
        }
      ],
      "stateMutability": "view",
      "type": "function",
      "constant": true
    }
  ],
  "bytecode": "0x60806040523480156200001157600080fd5b50620000586040518060400160405280600b81526020017f43616e6469646174652031000000000000000000000000000000000000000000815250620000a460201b60201c565b6200009e6040518060400160405280600b81526020017f43616e6469646174652032000000000000000000000000000000000000000000815250620000a460201b60201c565b620002c5565b60026000815480929190620000b99062000219565b919050555060405180606001604052806002548152602001828152602001600081525060008060025481526020019081526020016000206000820151816000015560208201518160010190805190602001906200011892919062000129565b506040820151816002015590505050565b8280546200013790620001e3565b90600052602060002090601f0160209004810192826200015b5760008555620001a7565b82601f106200017657805160ff1916838001178555620001a7565b82800160010185558215620001a7579182015b82811115620001a657825182559160200191906001019062000189565b5b509050620001b69190620001ba565b5090565b5b80821115620001d5576000816000905550600101620001bb565b5090565b6000819050919050565b60006002820490506001821680620001fc57607f821691505b6020821081141562000213576200021262000296565b5b50919050565b60006200022682620001d9565b91507fffffffffffffffffffffffffffffffffffffffffffffffffffffffffffffffff8214156200025c576200025b62000267565b5b600182019050919050565b7f4e487b7100000000000000000000000000000000000000000000000000000000600052601160045260246000fd5b7f4e487b7100000000000000000000000000000000000000000000000000000000600052602260045260246000fd5b6108dc80620002d56000396000f3fe608060405234801561001057600080fd5b50600436106100575760003560e01c80630121b93f1461005c5780632d35a8a2146100785780633477ee2e1461009657806335b8e820146100c8578063a3ec138d146100f9575b600080fd5b61007660048036038101906100719190610513565b610129565b005b6100806102b9565b60405161008d919061069e565b60405180910390f35b6100b060048036038101906100ab9190610513565b6102bf565b6040516100bf939291906106b9565b60405180910390f35b6100e260048036038101906100dd9190610513565b610371565b6040516100f092919061062e565b60405180910390f35b610113600480360381019061010e91906104ea565b6104a0565b6040516101209190610613565b60405180910390f35b600160003373ffffffffffffffffffffffffffffffffffffffff1673ffffffffffffffffffffffffffffffffffffffff16815260200190815260200160002060009054906101000a900460ff16156101b6576040517f08c379a00000000000000000000000000000000000000000000000000000000081526004016101ad9061065e565b60405180910390fd5b6000811180156101c857506002548111155b610207576040517f08c379a00000000000000000000000000000000000000000000000000000000081526004016101fe9061067e565b60405180910390fd5b60018060003373ffffffffffffffffffffffffffffffffffffffff1673ffffffffffffffffffffffffffffffffffffffff16815260200190815260200160002060006101000a81548160ff0219169083151502179055506000808281526020019081526020016000206002016000815480929190610284906107c0565b9190505550807fe447c5464cb203c1da94b4db8588d3cbf313ce4a489122f6b88e87f465b2810e60405160405180910390a250565b60025481565b60006020528060005260406000206000915090508060000154908060010180546102e89061078e565b80601f01602080910402602001604051908101604052809291908181526020018280546103149061078e565b80156103615780601f1061033657610100808354040283529160200191610361565b820191906000526020600020905b81548152906001019060200180831161034457829003601f168201915b5050505050908060020154905083565b60606000808311801561038657506002548311155b6103c5576040517f08c379a00000000000000000000000000000000000000000000000000000000081526004016103bc9061067e565b60405180910390fd5b6000806000858152602001908152602001600020604051806060016040529081600082015481526020016001820180546103fe9061078e565b80601f016020809104026020016040519081016040528092919081815260200182805461042a9061078e565b80156104775780601f1061044c57610100808354040283529160200191610477565b820191906000526020600020905b81548152906001019060200180831161045a57829003601f168201915b505050505081526020016002820154815250509050806020015181604001519250925050915091565b60016020528060005260406000206000915054906101000a900460ff1681565b6000813590506104cf81610878565b92915050565b6000813590506104e48161088f565b92915050565b6000602082840312156104fc57600080fd5b600061050a848285016104c0565b91505092915050565b60006020828403121561052557600080fd5b6000610533848285016104d5565b91505092915050565b61054581610725565b82525050565b6000610556826106f7565b6105608185610702565b935061057081856020860161075b565b61057981610867565b840191505092915050565b6000610591601783610702565b91507f596f75206861766520616c726561647920766f7465642e0000000000000000006000830152602082019050919050565b60006105d1601583610702565b91507f496e76616c69642063616e6469646174652049442e00000000000000000000006000830152602082019050919050565b61060d81610751565b82525050565b6000602082019050610628600083018461053c565b92915050565b60006040820190508181036000830152610648818561054b565b90506106576020830184610604565b9392505050565b6000602082019050818103600083015261067781610584565b9050919050565b60006020820190508181036000830152610697816105c4565b9050919050565b60006020820190506106b36000830184610604565b92915050565b60006060820190506106ce6000830186610604565b81810360208301526106e0818561054b565b90506106ef6040830184610604565b949350505050565b600081519050919050565b600082825260208201905092915050565b600061071e82610731565b9050919050565b60008115159050919050565b600073ffffffffffffffffffffffffffffffffffffffff82169050919050565b6000819050919050565b60005b8381101561077957808201518184015260208101905061075e565b83811115610788576000848401525b50505050565b600060028204905060018216806107a657607f821691505b602082108114156107ba576107b9610838565b5b50919050565b60006107cb82610751565b91507fffffffffffffffffffffffffffffffffffffffffffffffffffffffffffffffff8214156107fe576107fd610809565b5b600182019050919050565b7f4e487b7100000000000000000000000000000000000000000000000000000000600052601160045260246000fd5b7f4e487b7100000000000000000000000000000000000000000000000000000000600052602260045260246000fd5b6000601f19601f8301169050919050565b61088181610713565b811461088c57600080fd5b50565b61089881610751565b81146108a357600080fd5b5056fea26469706673582212208b6f44f16c6e3f3e225d2ef5f16a7e9b9a6d9704ca080b2f3e8bebbf6b9c7a3664736f6c63430008000033",
  "immutableReferences": {},
  "source": "// SPDX-License-Identifier: MIT\r\npragma solidity ^0.8.0;\r\n\r\ncontract Voting {\r\n    struct Candidate {\r\n        uint id;\r\n        string name;\r\n        uint voteCount;\r\n    }\r\n\r\n    mapping(uint => Candidate) public candidates;\r\n    mapping(address => bool) public voters;\r\n    uint public candidatesCount;\r\n\r\n    event VotedEvent(uint indexed candidateId);\r\n\r\n    constructor() {\r\n        addCandidate(\"Candidate 1\");\r\n        addCandidate(\"Candidate 2\");\r\n    }\r\n\r\n    function addCandidate(string memory _name) private {\r\n        candidatesCount++;\r\n        candidates[candidatesCount] = Candidate(candidatesCount, _name, 0);\r\n    }\r\n\r\n    function vote(uint _candidateId) public {\r\n        require(!voters[msg.sender], \"You have already voted.\");\r\n        require(_candidateId > 0 && _candidateId <= candidatesCount, \"Invalid candidate ID.\");\r\n\r\n        voters[msg.sender] = true;\r\n        candidates[_candidateId].voteCount++;\r\n\r\n        emit VotedEvent(_candidateId);\r\n    }\r\n\r\n    function getCandidate(uint _candidateId) public view returns (string memory, uint) {\r\n        require(_candidateId > 0 && _candidateId <= candidatesCount, \"Invalid candidate ID.\");\r\n        Candidate memory candidate = candidates[_candidateId];\r\n        return (candidate.name, candidate.voteCount);\r\n    }\r\n}",
  "sourcePath": "/Users/mohamedmoustafa/Web3 projects/DecentralizedVotingSystem/contracts/Voting.sol",
  "compiler": {
    "name": "solc",
    "version": "0.8.0+commit.c7dfd78e.Emscripten.clang"
  },
  "schemaVersion": "3.4.16",
  "updatedAt": "2025-04-09T05:56:17.423Z",
  "networkType": "ethereum",
  "devdoc": {
    "kind": "dev",
    "methods": {},
    "version": 1
  },
  "userdoc": {
    "kind": "user",
    "methods": {},
    "version": 1
  }
}